{
  "_format": "hh-sol-artifact-1",
  "contractName": "Create",
  "sourceName": "contracts/VotingContract.sol",
  "abi": [
    {
      "inputs": [],
      "stateMutability": "nonpayable",
      "type": "constructor"
    },
    {
      "anonymous": false,
      "inputs": [
        {
          "indexed": true,
          "internalType": "uint256",
          "name": "candidateId",
          "type": "uint256"
        },
        {
          "indexed": false,
          "internalType": "string",
          "name": "age",
          "type": "string"
        },
        {
          "indexed": false,
          "internalType": "string",
          "name": "image",
          "type": "string"
        },
        {
          "indexed": false,
          "internalType": "uint256",
          "name": "voteCount",
          "type": "uint256"
        },
        {
          "indexed": false,
          "internalType": "address",
          "name": "_address",
          "type": "address"
        },
        {
          "indexed": false,
          "internalType": "string",
          "name": "ipfs",
          "type": "string"
        }
      ],
      "name": "CandidateCreate",
      "type": "event"
    },
    {
      "anonymous": false,
      "inputs": [
        {
          "indexed": true,
          "internalType": "uint256",
          "name": "voter_voterId",
          "type": "uint256"
        },
        {
          "indexed": false,
          "internalType": "string",
          "name": "voter_name",
          "type": "string"
        },
        {
          "indexed": false,
          "internalType": "string",
          "name": "voter_image",
          "type": "string"
        },
        {
          "indexed": false,
          "internalType": "address",
          "name": "voter_address",
          "type": "address"
        },
        {
          "indexed": false,
          "internalType": "uint256",
          "name": "voter_allowed",
          "type": "uint256"
        },
        {
          "indexed": false,
          "internalType": "bool",
          "name": "voter_voted",
          "type": "bool"
        },
        {
          "indexed": false,
          "internalType": "uint256",
          "name": "voter_vote",
          "type": "uint256"
        },
        {
          "indexed": false,
          "internalType": "string",
          "name": "voter_ipfs",
          "type": "string"
        }
      ],
      "name": "VoterCreated",
      "type": "event"
    },
    {
      "inputs": [],
      "name": "_candidateId",
      "outputs": [
        {
          "internalType": "uint256",
          "name": "_value",
          "type": "uint256"
        }
      ],
      "stateMutability": "view",
      "type": "function"
    },
    {
      "inputs": [],
      "name": "_voterId",
      "outputs": [
        {
          "internalType": "uint256",
          "name": "_value",
          "type": "uint256"
        }
      ],
      "stateMutability": "view",
      "type": "function"
    },
    {
      "inputs": [
        {
          "internalType": "uint256",
          "name": "",
          "type": "uint256"
        }
      ],
      "name": "candidateAddress",
      "outputs": [
        {
          "internalType": "address",
          "name": "",
          "type": "address"
        }
      ],
      "stateMutability": "view",
      "type": "function"
    },
    {
      "inputs": [
        {
          "internalType": "address",
          "name": "",
          "type": "address"
        }
      ],
      "name": "candidates",
      "outputs": [
        {
          "internalType": "uint256",
          "name": "candidateId",
          "type": "uint256"
        },
        {
          "internalType": "string",
          "name": "age",
          "type": "string"
        },
        {
          "internalType": "string",
          "name": "name",
          "type": "string"
        },
        {
          "internalType": "string",
          "name": "image",
          "type": "string"
        },
        {
          "internalType": "uint256",
          "name": "voteCount",
          "type": "uint256"
        },
        {
          "internalType": "address",
          "name": "_address",
          "type": "address"
        },
        {
          "internalType": "string",
          "name": "ipfs",
          "type": "string"
        }
      ],
      "stateMutability": "view",
      "type": "function"
    },
    {
      "inputs": [],
      "name": "getCandidate",
      "outputs": [
        {
          "internalType": "address[]",
          "name": "",
          "type": "address[]"
        }
      ],
      "stateMutability": "view",
      "type": "function"
    },
    {
      "inputs": [
        {
          "internalType": "address",
          "name": "_address",
          "type": "address"
        }
      ],
      "name": "getCandidateData",
      "outputs": [
        {
          "internalType": "string",
          "name": "",
          "type": "string"
        },
        {
          "internalType": "string",
          "name": "",
          "type": "string"
        },
        {
          "internalType": "uint256",
          "name": "",
          "type": "uint256"
        },
        {
          "internalType": "string",
          "name": "",
          "type": "string"
        },
        {
          "internalType": "uint256",
          "name": "",
          "type": "uint256"
        },
        {
          "internalType": "string",
          "name": "",
          "type": "string"
        },
        {
          "internalType": "address",
          "name": "",
          "type": "address"
        }
      ],
      "stateMutability": "view",
      "type": "function"
    },
    {
      "inputs": [],
      "name": "getCandidateLength",
      "outputs": [
        {
          "internalType": "uint256",
          "name": "",
          "type": "uint256"
        }
      ],
      "stateMutability": "view",
      "type": "function"
    },
    {
      "inputs": [],
      "name": "getVotedVoterList",
      "outputs": [
        {
          "internalType": "address[]",
          "name": "",
          "type": "address[]"
        }
      ],
      "stateMutability": "view",
      "type": "function"
    },
    {
      "inputs": [],
      "name": "getVoterLength",
      "outputs": [
        {
          "internalType": "uint256",
          "name": "",
          "type": "uint256"
        }
      ],
      "stateMutability": "view",
      "type": "function"
    },
    {
      "inputs": [],
      "name": "getVoterList",
      "outputs": [
        {
          "internalType": "address[]",
          "name": "",
          "type": "address[]"
        }
      ],
      "stateMutability": "view",
      "type": "function"
    },
    {
      "inputs": [
        {
          "internalType": "address",
          "name": "_address",
          "type": "address"
        },
        {
          "internalType": "string",
          "name": "_age",
          "type": "string"
        },
        {
          "internalType": "string",
          "name": "_name",
          "type": "string"
        },
        {
          "internalType": "string",
          "name": "_image",
          "type": "string"
        },
        {
          "internalType": "string",
          "name": "_ipfs",
          "type": "string"
        }
      ],
      "name": "setCandidate",
      "outputs": [],
      "stateMutability": "nonpayable",
      "type": "function"
    },
    {
      "inputs": [
        {
          "internalType": "address",
          "name": "_candidateAddress",
          "type": "address"
        },
        {
          "internalType": "uint256",
          "name": "_candidateVoteId",
          "type": "uint256"
        }
      ],
      "name": "vote",
      "outputs": [],
      "stateMutability": "nonpayable",
      "type": "function"
    },
    {
      "inputs": [
        {
          "internalType": "uint256",
          "name": "",
          "type": "uint256"
        }
      ],
      "name": "votedVoters",
      "outputs": [
        {
          "internalType": "address",
          "name": "",
          "type": "address"
        }
      ],
      "stateMutability": "view",
      "type": "function"
    },
    {
      "inputs": [
        {
          "internalType": "address",
          "name": "_address",
          "type": "address"
        }
      ],
      "name": "voterData",
      "outputs": [
        {
          "internalType": "uint256",
          "name": "",
          "type": "uint256"
        },
        {
          "internalType": "string",
          "name": "",
          "type": "string"
        },
        {
          "internalType": "string",
          "name": "",
          "type": "string"
        },
        {
          "internalType": "address",
          "name": "",
          "type": "address"
        },
        {
          "internalType": "string",
          "name": "",
          "type": "string"
        },
        {
          "internalType": "uint256",
          "name": "",
          "type": "uint256"
        },
        {
          "internalType": "bool",
          "name": "",
          "type": "bool"
        }
      ],
      "stateMutability": "view",
      "type": "function"
    },
    {
      "inputs": [
        {
          "internalType": "address",
          "name": "_address",
          "type": "address"
        },
        {
          "internalType": "string",
          "name": "_name",
          "type": "string"
        },
        {
          "internalType": "string",
          "name": "_image",
          "type": "string"
        },
        {
          "internalType": "string",
          "name": "_ipfs",
          "type": "string"
        }
      ],
      "name": "voterRight",
      "outputs": [],
      "stateMutability": "nonpayable",
      "type": "function"
    },
    {
      "inputs": [
        {
          "internalType": "address",
          "name": "",
          "type": "address"
        }
      ],
      "name": "voters",
      "outputs": [
        {
          "internalType": "uint256",
          "name": "voter_voterId",
          "type": "uint256"
        },
        {
          "internalType": "string",
          "name": "voter_name",
          "type": "string"
        },
        {
          "internalType": "string",
          "name": "voter_image",
          "type": "string"
        },
        {
          "internalType": "address",
          "name": "voter_address",
          "type": "address"
        },
        {
          "internalType": "uint256",
          "name": "voter_allowed",
          "type": "uint256"
        },
        {
          "internalType": "bool",
          "name": "voter_voted",
          "type": "bool"
        },
        {
          "internalType": "uint256",
          "name": "voter_vote",
          "type": "uint256"
        },
        {
          "internalType": "string",
          "name": "voter_ipfs",
          "type": "string"
        }
      ],
      "stateMutability": "view",
      "type": "function"
    },
    {
      "inputs": [
        {
          "internalType": "uint256",
          "name": "",
          "type": "uint256"
        }
      ],
      "name": "votersAddress",
      "outputs": [
        {
          "internalType": "address",
          "name": "",
          "type": "address"
        }
      ],
      "stateMutability": "view",
      "type": "function"
    },
    {
      "inputs": [],
      "name": "votingOrganizer",
      "outputs": [
        {
          "internalType": "address",
          "name": "",
          "type": "address"
        }
      ],
      "stateMutability": "view",
      "type": "function"
    }
  ],
  "bytecode": "0x608060405234801561001057600080fd5b5033600260006101000a81548173ffffffffffffffffffffffffffffffffffffffff021916908373ffffffffffffffffffffffffffffffffffffffff160217905550612849806100616000396000f3fe608060405234801561001057600080fd5b50600436106101165760003560e01c80638ab66a90116100a2578063b28d92ae11610071578063b28d92ae1461031c578063b9be31521461033a578063c91ec71214610358578063e467d94214610374578063f7522a83146103aa57610116565b80638ab66a90146102735780638e945685146102a9578063a3ec138d146102c7578063a7388967146102fe57610116565b806343242daa116100e957806343242daa146101bb5780635cc48aa7146101eb5780635f74bbde1461020957806370218b85146102255780637831ffb31461024357610116565b80630361419e1461011b57806305ad45a4146101375780632a466ac7146101555780633a88251a1461018b575b600080fd5b61013560048036038101906101309190611b79565b6103c8565b005b61013f610640565b60405161014c9190611c4d565b60405180910390f35b61016f600480360381019061016a9190611c68565b61064d565b6040516101829796959493929190611d23565b60405180910390f35b6101a560048036038101906101a09190611dda565b610a94565b6040516101b29190611e07565b60405180910390f35b6101d560048036038101906101d09190611dda565b610ad3565b6040516101e29190611e07565b60405180910390f35b6101f3610b12565b6040516102009190611e07565b60405180910390f35b610223600480360381019061021e9190611e22565b610b38565b005b61022d610cff565b60405161023a9190611f20565b60405180910390f35b61025d60048036038101906102589190611dda565b610d8d565b60405161026a9190611e07565b60405180910390f35b61028d60048036038101906102889190611c68565b610dcc565b6040516102a09796959493929190611f42565b60405180910390f35b6102b161104e565b6040516102be9190611f20565b60405180910390f35b6102e160048036038101906102dc9190611c68565b6110dc565b6040516102f5989796959493929190611fe8565b60405180910390f35b6103066112e9565b6040516103139190611c4d565b60405180910390f35b6103246112f5565b6040516103319190611f20565b60405180910390f35b610342611383565b60405161034f9190611c4d565b60405180910390f35b610372600480360381019061036d919061207b565b61138f565b005b61038e60048036038101906103899190611c68565b6115c8565b6040516103a19796959493929190612166565b60405180910390f35b6103b2611990565b6040516103bf9190611c4d565b60405180910390f35b3373ffffffffffffffffffffffffffffffffffffffff16600260009054906101000a900473ffffffffffffffffffffffffffffffffffffffff1673ffffffffffffffffffffffffffffffffffffffff1614610458576040517f08c379a000000000000000000000000000000000000000000000000000000000815260040161044f9061225c565b60405180910390fd5b610462600061199d565b600061046e60006119b3565b90506000600760008773ffffffffffffffffffffffffffffffffffffffff1673ffffffffffffffffffffffffffffffffffffffff168152602001908152602001600020905060008160040154146104c457600080fd5b60018160040181905550848160010190816104df9190612488565b50838160020190816104f19190612488565b50858160030160006101000a81548173ffffffffffffffffffffffffffffffffffffffff021916908373ffffffffffffffffffffffffffffffffffffffff1602179055508181600001819055506103e8816006018190555060008160050160006101000a81548160ff021916908315150217905550828160070190816105779190612488565b506006869080600181540180825580915050600190039060005260206000200160009091909190916101000a81548173ffffffffffffffffffffffffffffffffffffffff021916908373ffffffffffffffffffffffffffffffffffffffff160217905550817ff5f39971dd62d9929e3a9feaa6bb77fe7c7da0001babff8a65a7e51ad0201c1986868985600401548660050160009054906101000a900460ff1687600601548a604051610630979695949392919061255a565b60405180910390a2505050505050565b6000600680549050905090565b60608060006060600060606000600460008973ffffffffffffffffffffffffffffffffffffffff1673ffffffffffffffffffffffffffffffffffffffff168152602001908152602001600020600101600460008a73ffffffffffffffffffffffffffffffffffffffff1673ffffffffffffffffffffffffffffffffffffffff168152602001908152602001600020600201600460008b73ffffffffffffffffffffffffffffffffffffffff1673ffffffffffffffffffffffffffffffffffffffff16815260200190815260200160002060000154600460008c73ffffffffffffffffffffffffffffffffffffffff1673ffffffffffffffffffffffffffffffffffffffff168152602001908152602001600020600301600460008d73ffffffffffffffffffffffffffffffffffffffff1673ffffffffffffffffffffffffffffffffffffffff16815260200190815260200160002060040154600460008e73ffffffffffffffffffffffffffffffffffffffff1673ffffffffffffffffffffffffffffffffffffffff168152602001908152602001600020600601600460008f73ffffffffffffffffffffffffffffffffffffffff1673ffffffffffffffffffffffffffffffffffffffff16815260200190815260200160002060050160009054906101000a900473ffffffffffffffffffffffffffffffffffffffff16868054610857906122ab565b80601f0160208091040260200160405190810160405280929190818152602001828054610883906122ab565b80156108d05780601f106108a5576101008083540402835291602001916108d0565b820191906000526020600020905b8154815290600101906020018083116108b357829003601f168201915b505050505096508580546108e3906122ab565b80601f016020809104026020016040519081016040528092919081815260200182805461090f906122ab565b801561095c5780601f106109315761010080835404028352916020019161095c565b820191906000526020600020905b81548152906001019060200180831161093f57829003601f168201915b5050505050955083805461096f906122ab565b80601f016020809104026020016040519081016040528092919081815260200182805461099b906122ab565b80156109e85780601f106109bd576101008083540402835291602001916109e8565b820191906000526020600020905b8154815290600101906020018083116109cb57829003601f168201915b505050505093508180546109fb906122ab565b80601f0160208091040260200160405190810160405280929190818152602001828054610a27906122ab565b8015610a745780601f10610a4957610100808354040283529160200191610a74565b820191906000526020600020905b815481529060010190602001808311610a5757829003601f168201915b505050505091509650965096509650965096509650919395979092949650565b60038181548110610aa457600080fd5b906000526020600020016000915054906101000a900473ffffffffffffffffffffffffffffffffffffffff1681565b60068181548110610ae357600080fd5b906000526020600020016000915054906101000a900473ffffffffffffffffffffffffffffffffffffffff1681565b600260009054906101000a900473ffffffffffffffffffffffffffffffffffffffff1681565b6000600760003373ffffffffffffffffffffffffffffffffffffffff1673ffffffffffffffffffffffffffffffffffffffff16815260200190815260200160002090508060050160009054906101000a900460ff1615610bcd576040517f08c379a0000000000000000000000000000000000000000000000000000000008152600401610bc49061262a565b60405180910390fd5b6000816004015403610c14576040517f08c379a0000000000000000000000000000000000000000000000000000000008152600401610c0b90612696565b60405180910390fd5b60018160050160006101000a81548160ff0219169083151502179055508181600601819055506005339080600181540180825580915050600190039060005260206000200160009091909190916101000a81548173ffffffffffffffffffffffffffffffffffffffff021916908373ffffffffffffffffffffffffffffffffffffffff1602179055508060040154600460008573ffffffffffffffffffffffffffffffffffffffff1673ffffffffffffffffffffffffffffffffffffffff1681526020019081526020016000206004016000828254610cf391906126e5565b92505081905550505050565b60606003805480602002602001604051908101604052809291908181526020018280548015610d8357602002820191906000526020600020905b8160009054906101000a900473ffffffffffffffffffffffffffffffffffffffff1673ffffffffffffffffffffffffffffffffffffffff1681526020019060010190808311610d39575b5050505050905090565b60058181548110610d9d57600080fd5b906000526020600020016000915054906101000a900473ffffffffffffffffffffffffffffffffffffffff1681565b6004602052806000526040600020600091509050806000015490806001018054610df5906122ab565b80601f0160208091040260200160405190810160405280929190818152602001828054610e21906122ab565b8015610e6e5780601f10610e4357610100808354040283529160200191610e6e565b820191906000526020600020905b815481529060010190602001808311610e5157829003601f168201915b505050505090806002018054610e83906122ab565b80601f0160208091040260200160405190810160405280929190818152602001828054610eaf906122ab565b8015610efc5780601f10610ed157610100808354040283529160200191610efc565b820191906000526020600020905b815481529060010190602001808311610edf57829003601f168201915b505050505090806003018054610f11906122ab565b80601f0160208091040260200160405190810160405280929190818152602001828054610f3d906122ab565b8015610f8a5780601f10610f5f57610100808354040283529160200191610f8a565b820191906000526020600020905b815481529060010190602001808311610f6d57829003601f168201915b5050505050908060040154908060050160009054906101000a900473ffffffffffffffffffffffffffffffffffffffff1690806006018054610fcb906122ab565b80601f0160208091040260200160405190810160405280929190818152602001828054610ff7906122ab565b80156110445780601f1061101957610100808354040283529160200191611044565b820191906000526020600020905b81548152906001019060200180831161102757829003601f168201915b5050505050905087565b606060058054806020026020016040519081016040528092919081815260200182805480156110d257602002820191906000526020600020905b8160009054906101000a900473ffffffffffffffffffffffffffffffffffffffff1673ffffffffffffffffffffffffffffffffffffffff1681526020019060010190808311611088575b5050505050905090565b6007602052806000526040600020600091509050806000015490806001018054611105906122ab565b80601f0160208091040260200160405190810160405280929190818152602001828054611131906122ab565b801561117e5780601f106111535761010080835404028352916020019161117e565b820191906000526020600020905b81548152906001019060200180831161116157829003601f168201915b505050505090806002018054611193906122ab565b80601f01602080910402602001604051908101604052809291908181526020018280546111bf906122ab565b801561120c5780601f106111e15761010080835404028352916020019161120c565b820191906000526020600020905b8154815290600101906020018083116111ef57829003601f168201915b5050505050908060030160009054906101000a900473ffffffffffffffffffffffffffffffffffffffff16908060040154908060050160009054906101000a900460ff1690806006015490806007018054611266906122ab565b80601f0160208091040260200160405190810160405280929190818152602001828054611292906122ab565b80156112df5780601f106112b4576101008083540402835291602001916112df565b820191906000526020600020905b8154815290600101906020018083116112c257829003601f168201915b5050505050905088565b60018060000154905081565b6060600680548060200260200160405190810160405280929190818152602001828054801561137957602002820191906000526020600020905b8160009054906101000a900473ffffffffffffffffffffffffffffffffffffffff1673ffffffffffffffffffffffffffffffffffffffff168152602001906001019080831161132f575b5050505050905090565b60008060000154905081565b3373ffffffffffffffffffffffffffffffffffffffff16600260009054906101000a900473ffffffffffffffffffffffffffffffffffffffff1673ffffffffffffffffffffffffffffffffffffffff161461141f576040517f08c379a00000000000000000000000000000000000000000000000000000000081526004016114169061278b565b60405180910390fd5b611429600161199d565b600061143560016119b3565b90506000600460008873ffffffffffffffffffffffffffffffffffffffff1673ffffffffffffffffffffffffffffffffffffffff16815260200190815260200160002090508581600101908161148b9190612488565b508481600201908161149d9190612488565b50818160000181905550838160030190816114b89190612488565b5060008160040181905550868160050160006101000a81548173ffffffffffffffffffffffffffffffffffffffff021916908373ffffffffffffffffffffffffffffffffffffffff160217905550828160060190816115179190612488565b506003879080600181540180825580915050600190039060005260206000200160009091909190916101000a81548173ffffffffffffffffffffffffffffffffffffffff021916908373ffffffffffffffffffffffffffffffffffffffff160217905550817f90f56c84b4b2e24220b751da6de9e56937478e7f932b8b730f066eb1e972bd69878684600401548b886040516115b79594939291906127ab565b60405180910390a250505050505050565b600060608060006060600080600760008973ffffffffffffffffffffffffffffffffffffffff1673ffffffffffffffffffffffffffffffffffffffff16815260200190815260200160002060000154600760008a73ffffffffffffffffffffffffffffffffffffffff1673ffffffffffffffffffffffffffffffffffffffff168152602001908152602001600020600101600760008b73ffffffffffffffffffffffffffffffffffffffff1673ffffffffffffffffffffffffffffffffffffffff168152602001908152602001600020600201600760008c73ffffffffffffffffffffffffffffffffffffffff1673ffffffffffffffffffffffffffffffffffffffff16815260200190815260200160002060030160009054906101000a900473ffffffffffffffffffffffffffffffffffffffff16600760008d73ffffffffffffffffffffffffffffffffffffffff1673ffffffffffffffffffffffffffffffffffffffff168152602001908152602001600020600701600760008e73ffffffffffffffffffffffffffffffffffffffff1673ffffffffffffffffffffffffffffffffffffffff16815260200190815260200160002060040154600760008f73ffffffffffffffffffffffffffffffffffffffff1673ffffffffffffffffffffffffffffffffffffffff16815260200190815260200160002060050160009054906101000a900460ff168580546117df906122ab565b80601f016020809104026020016040519081016040528092919081815260200182805461180b906122ab565b80156118585780601f1061182d57610100808354040283529160200191611858565b820191906000526020600020905b81548152906001019060200180831161183b57829003601f168201915b5050505050955084805461186b906122ab565b80601f0160208091040260200160405190810160405280929190818152602001828054611897906122ab565b80156118e45780601f106118b9576101008083540402835291602001916118e4565b820191906000526020600020905b8154815290600101906020018083116118c757829003601f168201915b505050505094508280546118f7906122ab565b80601f0160208091040260200160405190810160405280929190818152602001828054611923906122ab565b80156119705780601f1061194557610100808354040283529160200191611970565b820191906000526020600020905b81548152906001019060200180831161195357829003601f168201915b505050505092509650965096509650965096509650919395979092949650565b6000600380549050905090565b6001816000016000828254019250508190555050565b600081600001549050919050565b6000604051905090565b600080fd5b600080fd5b600073ffffffffffffffffffffffffffffffffffffffff82169050919050565b6000611a00826119d5565b9050919050565b611a10816119f5565b8114611a1b57600080fd5b50565b600081359050611a2d81611a07565b92915050565b600080fd5b600080fd5b6000601f19601f8301169050919050565b7f4e487b7100000000000000000000000000000000000000000000000000000000600052604160045260246000fd5b611a8682611a3d565b810181811067ffffffffffffffff82111715611aa557611aa4611a4e565b5b80604052505050565b6000611ab86119c1565b9050611ac48282611a7d565b919050565b600067ffffffffffffffff821115611ae457611ae3611a4e565b5b611aed82611a3d565b9050602081019050919050565b82818337600083830152505050565b6000611b1c611b1784611ac9565b611aae565b905082815260208101848484011115611b3857611b37611a38565b5b611b43848285611afa565b509392505050565b600082601f830112611b6057611b5f611a33565b5b8135611b70848260208601611b09565b91505092915050565b60008060008060808587031215611b9357611b926119cb565b5b6000611ba187828801611a1e565b945050602085013567ffffffffffffffff811115611bc257611bc16119d0565b5b611bce87828801611b4b565b935050604085013567ffffffffffffffff811115611bef57611bee6119d0565b5b611bfb87828801611b4b565b925050606085013567ffffffffffffffff811115611c1c57611c1b6119d0565b5b611c2887828801611b4b565b91505092959194509250565b6000819050919050565b611c4781611c34565b82525050565b6000602082019050611c626000830184611c3e565b92915050565b600060208284031215611c7e57611c7d6119cb565b5b6000611c8c84828501611a1e565b91505092915050565b600081519050919050565b600082825260208201905092915050565b60005b83811015611ccf578082015181840152602081019050611cb4565b60008484015250505050565b6000611ce682611c95565b611cf08185611ca0565b9350611d00818560208601611cb1565b611d0981611a3d565b840191505092915050565b611d1d816119f5565b82525050565b600060e0820190508181036000830152611d3d818a611cdb565b90508181036020830152611d518189611cdb565b9050611d606040830188611c3e565b8181036060830152611d728187611cdb565b9050611d816080830186611c3e565b81810360a0830152611d938185611cdb565b9050611da260c0830184611d14565b98975050505050505050565b611db781611c34565b8114611dc257600080fd5b50565b600081359050611dd481611dae565b92915050565b600060208284031215611df057611def6119cb565b5b6000611dfe84828501611dc5565b91505092915050565b6000602082019050611e1c6000830184611d14565b92915050565b60008060408385031215611e3957611e386119cb565b5b6000611e4785828601611a1e565b9250506020611e5885828601611dc5565b9150509250929050565b600081519050919050565b600082825260208201905092915050565b6000819050602082019050919050565b611e97816119f5565b82525050565b6000611ea98383611e8e565b60208301905092915050565b6000602082019050919050565b6000611ecd82611e62565b611ed78185611e6d565b9350611ee283611e7e565b8060005b83811015611f13578151611efa8882611e9d565b9750611f0583611eb5565b925050600181019050611ee6565b5085935050505092915050565b60006020820190508181036000830152611f3a8184611ec2565b905092915050565b600060e082019050611f57600083018a611c3e565b8181036020830152611f698189611cdb565b90508181036040830152611f7d8188611cdb565b90508181036060830152611f918187611cdb565b9050611fa06080830186611c3e565b611fad60a0830185611d14565b81810360c0830152611fbf8184611cdb565b905098975050505050505050565b60008115159050919050565b611fe281611fcd565b82525050565b600061010082019050611ffe600083018b611c3e565b8181036020830152612010818a611cdb565b905081810360408301526120248189611cdb565b90506120336060830188611d14565b6120406080830187611c3e565b61204d60a0830186611fd9565b61205a60c0830185611c3e565b81810360e083015261206c8184611cdb565b90509998505050505050505050565b600080600080600060a08688031215612097576120966119cb565b5b60006120a588828901611a1e565b955050602086013567ffffffffffffffff8111156120c6576120c56119d0565b5b6120d288828901611b4b565b945050604086013567ffffffffffffffff8111156120f3576120f26119d0565b5b6120ff88828901611b4b565b935050606086013567ffffffffffffffff8111156121205761211f6119d0565b5b61212c88828901611b4b565b925050608086013567ffffffffffffffff81111561214d5761214c6119d0565b5b61215988828901611b4b565b9150509295509295909350565b600060e08201905061217b600083018a611c3e565b818103602083015261218d8189611cdb565b905081810360408301526121a18188611cdb565b90506121b06060830187611d14565b81810360808301526121c28186611cdb565b90506121d160a0830185611c3e565b6121de60c0830184611fd9565b98975050505050505050565b7f4f6e6c79204f7267616e697a65722063616e206372656174652074686520766f60008201527f7465720000000000000000000000000000000000000000000000000000000000602082015250565b6000612246602383611ca0565b9150612251826121ea565b604082019050919050565b6000602082019050818103600083015261227581612239565b9050919050565b7f4e487b7100000000000000000000000000000000000000000000000000000000600052602260045260246000fd5b600060028204905060018216806122c357607f821691505b6020821081036122d6576122d561227c565b5b50919050565b60008190508160005260206000209050919050565b60006020601f8301049050919050565b600082821b905092915050565b60006008830261233e7fffffffffffffffffffffffffffffffffffffffffffffffffffffffffffffffff82612301565b6123488683612301565b95508019841693508086168417925050509392505050565b6000819050919050565b600061238561238061237b84611c34565b612360565b611c34565b9050919050565b6000819050919050565b61239f8361236a565b6123b36123ab8261238c565b84845461230e565b825550505050565b600090565b6123c86123bb565b6123d3818484612396565b505050565b5b818110156123f7576123ec6000826123c0565b6001810190506123d9565b5050565b601f82111561243c5761240d816122dc565b612416846122f1565b81016020851015612425578190505b612439612431856122f1565b8301826123d8565b50505b505050565b600082821c905092915050565b600061245f60001984600802612441565b1980831691505092915050565b6000612478838361244e565b9150826002028217905092915050565b61249182611c95565b67ffffffffffffffff8111156124aa576124a9611a4e565b5b6124b482546122ab565b6124bf8282856123fb565b600060209050601f8311600181146124f257600084156124e0578287015190505b6124ea858261246c565b865550612552565b601f198416612500866122dc565b60005b8281101561252857848901518255600182019150602085019450602081019050612503565b868310156125455784890151612541601f89168261244e565b8355505b6001600288020188555050505b505050505050565b600060e0820190508181036000830152612574818a611cdb565b905081810360208301526125888189611cdb565b90506125976040830188611d14565b6125a46060830187611c3e565b6125b16080830186611fd9565b6125be60a0830185611c3e565b81810360c08301526125d08184611cdb565b905098975050505050505050565b7f596f75206861766520616c726561647920766f74656400000000000000000000600082015250565b6000612614601683611ca0565b915061261f826125de565b602082019050919050565b6000602082019050818103600083015261264381612607565b9050919050565b7f596f752068617665206e6f20726967687420746f20766f746500000000000000600082015250565b6000612680601983611ca0565b915061268b8261264a565b602082019050919050565b600060208201905081810360008301526126af81612673565b9050919050565b7f4e487b7100000000000000000000000000000000000000000000000000000000600052601160045260246000fd5b60006126f082611c34565b91506126fb83611c34565b9250828201905080821115612713576127126126b6565b5b92915050565b7f4f4e4c59204f5247414e495a45522043414e204352454154452054484520434160008201527f4e44494441544500000000000000000000000000000000000000000000000000602082015250565b6000612775602783611ca0565b915061278082612719565b604082019050919050565b600060208201905081810360008301526127a481612768565b9050919050565b600060a08201905081810360008301526127c58188611cdb565b905081810360208301526127d98187611cdb565b90506127e86040830186611c3e565b6127f56060830185611d14565b81810360808301526128078184611cdb565b9050969550505050505056fea264697066735822122096bcec128ea0ea4b72f8eb33cba5629776e9e66fa6a2930e90e213cd2dd276eb64736f6c63430008110033",
  "linkReferences": {},
  "deployedLinkReferences": {}
}